{
  "contractName": "Certificate",
  "abi": [
    {
      "anonymous": false,
      "inputs": [
        {
          "indexed": false,
          "internalType": "uint256",
          "name": "id",
          "type": "uint256"
        },
        {
          "indexed": false,
          "internalType": "string",
          "name": "name",
          "type": "string"
        },
        {
          "indexed": false,
          "internalType": "string",
          "name": "age",
          "type": "string"
        }
      ],
      "name": "CertificateCreated",
      "type": "event"
    },
    {
      "constant": true,
      "inputs": [
        {
          "internalType": "uint256",
          "name": "",
          "type": "uint256"
        }
      ],
      "name": "Certificates",
      "outputs": [
        {
          "internalType": "uint256",
          "name": "id",
          "type": "uint256"
        },
        {
          "internalType": "string",
          "name": "name",
          "type": "string"
        },
        {
          "internalType": "string",
          "name": "age",
          "type": "string"
        }
      ],
      "payable": false,
      "stateMutability": "view",
      "type": "function"
    },
    {
      "constant": true,
      "inputs": [],
      "name": "certiCount",
      "outputs": [
        {
          "internalType": "uint256",
          "name": "",
          "type": "uint256"
        }
      ],
      "payable": false,
      "stateMutability": "view",
      "type": "function"
    },
    {
      "constant": false,
      "inputs": [
        {
          "internalType": "string",
          "name": "_name",
          "type": "string"
        },
        {
          "internalType": "string",
          "name": "_age",
          "type": "string"
        }
      ],
      "name": "createCertificate",
      "outputs": [],
      "payable": false,
      "stateMutability": "nonpayable",
      "type": "function"
    }
  ],
  "bytecode": "0x60806040526000805534801561001457600080fd5b5061061a806100246000396000f3fe608060405234801561001057600080fd5b50600436106100415760003560e01c806367aeb864146100465780639622c83614610060578063f02c5a2014610162575b600080fd5b61004e610291565b60408051918252519081900360200190f35b61007d6004803603602081101561007657600080fd5b5035610297565b604051808481526020018060200180602001838103835285818151815260200191508051906020019080838360005b838110156100c45781810151838201526020016100ac565b50505050905090810190601f1680156100f15780820380516001836020036101000a031916815260200191505b50838103825284518152845160209182019186019080838360005b8381101561012457818101518382015260200161010c565b50505050905090810190601f1680156101515780820380516001836020036101000a031916815260200191505b509550505050505060405180910390f35b61028f6004803603604081101561017857600080fd5b81019060208101813564010000000081111561019357600080fd5b8201836020820111156101a557600080fd5b803590602001918460018302840111640100000000831117156101c757600080fd5b91908080601f016020809104026020016040519081016040528093929190818152602001838380828437600092019190915250929594936020810193503591505064010000000081111561021a57600080fd5b82018360208201111561022c57600080fd5b8035906020019184600183028401116401000000008311171561024e57600080fd5b91908080601f0160208091040260200160405190810160405280939291908181526020018383808284376000920191909152509295506103cf945050505050565b005b60005481565b600160208181526000928352604092839020805481840180548651600296821615610100026000190190911695909504601f810185900485028601850190965285855290949193929091908301828280156103335780601f1061030857610100808354040283529160200191610333565b820191906000526020600020905b81548152906001019060200180831161031657829003601f168201915b50505060028085018054604080516020601f60001961010060018716150201909416959095049283018590048502810185019091528181529596959450909250908301828280156103c55780601f1061039a576101008083540402835291602001916103c5565b820191906000526020600020905b8154815290600101906020018083116103a857829003601f168201915b5050505050905083565b600080546001908101808355604080516060810182528281526020808201888152828401889052938652848152919094208451815591518051929361041c9390850192919091019061054a565b506040820151805161043891600284019160209091019061054a565b509050507ff016b4fb9590f41993b412509e161d7df43b858597ffdd30fa6161bf19734e456000548383604051808481526020018060200180602001838103835285818151815260200191508051906020019080838360005b838110156104a9578181015183820152602001610491565b50505050905090810190601f1680156104d65780820380516001836020036101000a031916815260200191505b50838103825284518152845160209182019186019080838360005b838110156105095781810151838201526020016104f1565b50505050905090810190601f1680156105365780820380516001836020036101000a031916815260200191505b509550505050505060405180910390a15050565b828054600181600116156101000203166002900490600052602060002090601f016020900481019282601f1061058b57805160ff19168380011785556105b8565b828001600101855582156105b8579182015b828111156105b857825182559160200191906001019061059d565b506105c49291506105c8565b5090565b6105e291905b808211156105c457600081556001016105ce565b9056fea265627a7a723158200abac4a2896ee76266c465ece947d9d445cf7f2a1dddaf7e2fd743f3391329d664736f6c63430005100032",
  "source": "pragma solidity >=0.5.16;\r\n\r\ncontract Certificate{\r\n    uint public certiCount = 0; \r\n\r\n    struct Certificate {\r\n        uint id;\r\n        string name;\r\n        string age;\r\n    }\r\n\r\n    mapping(uint=> Certificate) public Certificates;\r\n\r\n    event CertificateCreated(\r\n        uint id,\r\n        string name,\r\n        string age\r\n\r\n    );\r\n\r\n   \r\n    function createCertificate(string memory _name,string memory _age)public{\r\n        certiCount++;\r\n        Certificates[certiCount]=Certificate(certiCount,_name,_age);\r\n        emit CertificateCreated(certiCount,_name,_age);\r\n    }\r\n\r\n   \r\n    \r\n}\r\n",
  "sourcePath": "E:\\BlockChain\\GFG-Project-BlockChain\\contracts\\Certificate.sol",
  "compiler": {
    "name": "solc",
    "version": "0.5.16+commit.9c3226ce.Emscripten.clang"
  },
  "schemaVersion": "3.4.13",
  "updatedAt": "2023-04-14T07:59:20.788Z",
  "networkType": "ethereum",
  "devdoc": {
    "methods": {}
  },
  "userdoc": {
    "methods": {}
  }
}